:020000040800F2
:10000000E8930120A5010008BD7200086D020008F8
:10001000C9700008D5130008B18D00080000000069
:10002000000000000000000000000000B701000810
:10003000792B000800000000F7010008BD0100084E
:10004000BF010008BF010008BF010008BF01000890
:10005000BF010008BF010008F93100087332000831
:100060007D32000887320008913200080F26000810
:1000700023260008372600084D2600089126000890
:10008000A7260008BD260008BF010008BF01000820
:1000900000000000BF010008000000009D320008C1
:1000A000BF01000871840008BF010008BF010008FB
:1000B0008584000899840008AD840008BF01000809
:1000C00000000000BF01000800000000BF010008A0
:1000D000BF010008818B0008BD8B0008F98B000868
:1000E00003320008BF010008BF010008BF0100087B
:1000F00001850008BF010008BF010008BF0100081A
:1001000000000000BF010008C1840008BF01000812
:10011000518C00088D8C0008D5840008ED840008FF
:10012000D3260008BF010008E7260008FD260008C6
:1001300015270008BF0100080000000000000000B3
:10014000BF0100080000000000000000BF0100081F
:10015000000000000000000000000000C18C00084A
:10016000000000000000000000000000000000008F
:10017000000000000000000000000000000000007F
:100180000000000000000000FD8C0008398D000810
:10019000DFF80CD000F0CEFD00480047AF0D00089E
:1001A000E89301200648804706480047FEE7FEE73F
:1001B000FEE7FEE7FEE7FEE7FEE7FEE7FEE7FEE717
:1001C0000D84000891010008EFF3108072B67047AB
:1001D00080F310887047324A1368012B04D04FF027
:1001E000010313602F4A10602F4A11602F484FF00F
:1001F000805101607047EFF3108272B628480168A1
:1002000091B14FF0000101602648016829B1EFF378
:10021000098121E9F00F0068016023490968096834
:10022000B1E8F00F81F3098882F310884EF0040ED4
:1002300070471D4908601B494FF0000008601849CD
:100240004FF0010008601A481A49D0F8002041EA2E
:100250000201016015484FF08051016016480068A6
:10026000006880F3088861B662B670471EF0040F1C
:100270000CBFEFF30880EFF3098020E9F00F40F89E
:1002800004ED1EF0040F0CBF80F3088880F309888A
:1002900000B50CF0DFFD5DF804EB4EF0040E704786
:1002A000BC050020B4050020B805002004ED00E0E6
:1002B00020ED00E00000FFFF08ED00E02DE9F05F19
:1002C0000546002092469B468846064681464024C5
:1002D0001BE0284641464746224600F00CFC5346A8
:1002E0005A46C01A914110D311461846224600F0D2
:1002F000F3FB2D1A67EB01084F462246012000212F
:1003000000F0EAFB17EB00094E41201EA4F10104A6
:10031000DFDC484631462A464346BDE8F09F2DE9DA
:10032000F0410024061B254671F1000605DA012480
:100330000027D0EB070067EB0101161E73F10006E2
:1003400005DA0027D2EB0702012567EB0303FFF76D
:10035000B5FF86460E4617469C46AC4204D00025A3
:10036000D0EB050E65EB010624B10020D2EB0007AF
:1003700060EB030C704631463A466346BDE8F081B7
:1003800040EA01039B0703D009E008C9121F08C017
:10039000042AFAD203E011F8013B00F8013B521E97
:1003A000F9D27047D2B201E000F8012B491EFBD20E
:1003B00070470022F6E710B513460A460446194670
:1003C000FFF7F0FF204610BD421E12F8013F002B40
:1003D000FBD111F8013B02F8013B002BF9D170472A
:1003E00010B5044604E00B7800F8013B03B1491C4A
:1003F000521EF8D2204610BD421C10F8011B0029E5
:10040000FBD1801A704730B504460020034600E057
:100410005B1C934203D2E05CCD5C401BF8D030BD46
:10042000034611F8012B00F8012B002AF9D11846D8
:10043000704730B505460020034600E05B1C934240
:1004400005D2EC5CC85C201A01D1002CF6D130BD7D
:10045000F0B480EA0102D40F4200B2EB410F02D2A5
:100460000246084611464A0042D0C30DDDB2C1F330
:10047000C752AD1A202D35DAC1F3160141F400023E
:1004800004B15242C5F1200602FA06F12A41104495
:10049000B3EBD05F23D0C4B1012DA0EBC35009DC76
:1004A000F0BC4FF0004202EAC352DBB200F500009C
:1004B00000F04CBB400000F1807000EBC350A0F195
:1004C000807040EAD170490009E0490841EAC071F2
:1004D000A0EBC35000F50000400800EBC350F0BC97
:1004E00000F02BBB6142012202EB4101001BF6E749
:1004F000F0BC704781F00041AAE780F00040A7E718
:1005000080EA010210B502F00043400022D04A0008
:100510001FD0010E01EB1261C0F35600C2F3560268
:1005200040F4000042F40002A0FB022000047F39E6
:10053000140400D0401C50EA124001D44000491E6F
:10054000C2B20C0604EBD010401C4008802A02D036
:1005500003E0002010BD20F00100002900DA002097
:10056000184310BD30B480EA010202F0004530F0BB
:10057000004221F0004013D090B1C30DD40DC2F35E
:100580001601C0F31600E41A41F4000140F4000221
:100590007D34914201D3641C00E04900002C02DA52
:1005A00030BC002070474FF400000023914201D37B
:1005B000891A034340084FEA4101F7D151B19142F2
:1005C00002D14FF0004105E002D24FF0010101E0FD
:1005D0006FF0010103EBC450284430BC00F0ADBA09
:1005E0002DE9FE4F804681EA0300C00F0C460090C3
:1005F00021F0004123F00045B8EB0200A94105D2EB
:100600004046214690461C460B46024623F00040D9
:10061000104347D0270DC7F30A00C3F30A510290D5
:10062000401A019040286BDAC3F3130040F4801B9A
:100630000098924620B10023D2EB030A63EB0B0B28
:1006400001985946C0F14002504600F045FA06466E
:100650000D4650465946019A00F05DFA10EB08002D
:100660006141002487EA115284EAE7731A4340D0BB
:10067000009A62B3019A012A4FEA075215DC001B67
:1006800061EB02014FF0004202EA0752CDE900425D
:10069000001C41F5801132462B4600F094FA03B05D
:1006A000BDE8F08F40462146F9E7001B61EB0201EF
:1006B000001C41F5801300185B412018A2F50017BB
:1006C00047EB030140EAD570B6196D4111E06D08A2
:1006D0004FEA360645EAC0754FEA0752001B61EB48
:1006E0000201001C41F5801149084FEA3000001951
:1006F000514132462B4603B0BDE8F04F00F054BAEA
:100700000098012240000023D0EB020263EBE0736B
:10071000009821464FEAE074B8EB000061EB040159
:10072000E9E783F000435BE781F0004158E72DE9FA
:10073000FE4F81EA030404F0004421F000410094DC
:100740004FF0000B23F0004350EA01045ED052EA60
:1007500003045BD0C3F30A54C1F30A552C44A4F23A
:10076000F3340194A0FB0254C1F3130141F480114E
:10077000C3F3130343F4801301FB024400FB034E55
:10078000840A970A44EA815447EA8357A4FB07681E
:1007900002958D0A05FB07854FEA932C04FB0C5448
:1007A0002705029D4FEA065847EA1637B5EB0805BC
:1007B0006EEB070C870E920E47EA811742EA83120E
:1007C000A7FB0201B6EB0B0164EB00042B0D43EA1F
:1007D0000C335E1844EB1C50DA465146E7FB02012D
:1007E000C5F313044FEA0B3343EA14534FEA0432C0
:1007F000019C43EA0603A4F10C040294009CCDE999
:1008000000B400F0E0F903B0BDE8F08F002001462D
:10081000F9E72DE9F04D81EA030404F0004B21F0E3
:10082000004514464FF0000A23F0004150EA05024B
:1008300020D054EA01021DD0C5F30A570246C5F381
:100840001303C1F31300C1F30A5640F4801543F4B7
:100850008013A7EB0608101BD64608F2FD3873EB91
:10086000050002D308F1010801E092185B41B8F1DC
:10087000000F03DA00200146BDE8F08D00204FF4A0
:100880008011064684460EE0171B73EB050705D35F
:10089000121B63EB050306434CEA010C49084FEABF
:1008A000300092185B4150EA0107EDD152EA030093
:1008B00012D082EA040083EA0501084305D0101B28
:1008C000AB4106D20122002306E000224FF0004394
:1008D00002E06FF0010253101AEB06004CEB0851D6
:1008E00010EB0A0041EB0B01BDE8F04D00F05CB9E4
:1008F000C10F80EAE0700844CA079623002100F087
:1009000025B996230022114600F020B9F0B4CA1789
:10091000CB0F50405140C61841F100054FEAC37259
:10092000314628004FF0960303D0B623F0BC00F008
:100930000DB930460021F9E70EB5C10F80EAE0702D
:100940000844CA07002140F233438DE80E000A46EE
:100950000B4600F038F903B000BD00F0004220F073
:100960000040C10DC0F3160040F400007F2901DAF9
:1009700000207047962903DCC1F19601C84001E0D0
:1009800096398840002AF4D04042704720F0004059
:10099000C10DC0F3160040F400007F2901DA0020E9
:1009A0007047962903DCC1F19601C840704796391B
:1009B0008840704770B5C1F30A5201F00045002429
:1009C000C1F3130140F2FF3341F480119A4201DA7E
:1009D000002070BD40F233439A42A2F2334203DC5E
:1009E000524200F088F800E090402C43F1D04042A1
:1009F00070BD00F0004230F000400AD0C10D01F59A
:100A00006071C0F3160042EA0151C2084007114369
:100A1000704700200146704730B5041E71F1000494
:100A200004DB4FF00044404264EB0101141E73F1FB
:100A3000000405DB1C464FF00043524263EB040305
:100A40008B4208BF824230BD30B5041E71F10004F4
:100A500004DB4FF00044404264EB0101141E73F1CB
:100A6000000405DB1C464FF00043524263EB0403D5
:100A7000994208BF904230BD01F0004330B421F0EC
:100A8000004150EA010206D00A0DA2F56072C1F3DE
:100A90001301002A02DC30BC00207047440F44EAF6
:100AA000C104C100E01830BC00EBC25000F045B8F2
:100AB000002801DBC0F10040002901DBC1F1004149
:100AC00081427047002801DBC0F10040002901DBB2
:100AD000C1F1004188427047202A04DB203A00FA25
:100AE00002F1002070479140C2F1200320FA03F385
:100AF000194390407047202A04DB203A21FA02F083
:100B00000021704721FA02F3D040C2F12002914047
:100B1000084319467047202A06DBCB17203A41FAD2
:100B200002F043EAE07306E041FA02F3D040C2F17A
:100B3000200291400843194670470029A8BF70471A
:100B4000401C490008BF20F00100704710B4B0FA03
:100B500080FC00FA0CF050EA010404BF10BC70479E
:100B600049B1CCF1200421FA04F411FA0CF118BFB8
:100B7000012121430843A3EB0C01CB1D4FEA006187
:100B80004FEA102042BF002010BC704700EBC3505A
:100B900010440029A4BF10BC7047401C490008BF86
:100BA00020F0010010BC704710B5141E73F1000452
:100BB00008DA401C41F1000192185B411A4301D14F
:100BC00020F0010010BD2DE9F04D92469B4611B179
:100BD000B1FA81F202E0B0FA80F220329046FFF7DB
:100BE0007BFF04460F4640EA0A0041EA0B015346E8
:100BF0005A46084313D0114653EA010019D0C8F1F0
:100C000040025046FFF777FF05460E4650465946CC
:100C10004246FFF761FF084305D0012004E020466B
:100C20003946BDE8F08D0020054346EAE0762C43C6
:100C300037430A986305E40AA0EB08000022FD0A86
:100C400044EA47540A3002D500200146E9E701058D
:100C500010196941DDE9084500196941BDE8F04D09
:100C6000A2E770B521F0004303430CD0C1F30A554D
:100C70000024D5EB040564EB0403D617AD1AB34189
:100C800002DB0020014670BD201841EB025170BD0F
:100C90002DE9F04D00231A461B1A8A4103DB002080
:100CA0000146BDE8F08DC1F30A52C1F3130141F4CE
:100CB00080154FF0000BD10702D100186D41521E74
:100CC0000027044640F2FF11384601EB620A3E4617
:100CD0008046024600204FF48011FFF70CFFC21936
:100CE0007141BB1846EB0100B4EB030C75EB000C33
:100CF00004D3E41A65EB000517460E46241908F1E3
:100D000001006D4180463428E3DDF91946EB060009
:100D1000091BA84103D24FF0FF32134601E0002225
:100D200013461BEB070046EB0A51BDE8F04DFFF7F9
:100D30003BBF0000064C074D06E0E06840F00103B1
:100D400094E8070098471034AC42F6D3FFF724FA32
:100D50007C0101089C01010870B58C1810F8015B3A
:100D600015F0070301D110F8013B2A1106D110F844
:100D7000012B03E010F8016B01F8016B5B1EF9D148
:100D80002B0705D40023521E0DD401F8013BFAE7CE
:100D900010F8013BCB1A921C03E013F8015B01F839
:100DA000015B521EF9D5A142D8D3002070BD10B509
:100DB0000DF074FA002010BD002800DC404270479E
:100DC00010B5044600212046FFF772FE01D884F0DA
:100DD0000044204610BD000010B55AE031480078AC
:100DE00001280FD100F090FC3C2280212E4809F010
:100DF00086FD03F069F906F04BFF06F0D3FF0020F3
:100E0000284908702948007801280AD1002027497C
:100E1000087027480088401C25490880642008F095
:100E20004FFD2448007801280AD10020214908708C
:100E30001F480088401E1E490880642008F040FDBD
:100E40001D48007801280AD100201B490870184865
:100E500000880A3016490880642008F031FD1748E0
:100E6000007801280AD10020144908701048008831
:100E70000A380F490880642008F022FD10A20021E2
:100E8000B4200AF00BF8114802780121B4200AF0CE
:100E900069F80F4800780128A0D100200C4908709B
:100EA00010BD0000A2040020482501200B000020F6
:100EB000F60400200C0000200D0000200E00002091
:100EC0005468726573686F6C64313A00F4040020F2
:100ED0000F0000202DE9F043054616461F46084640
:100EE0004FF0000C002423E0002319E003F1010877
:100EF00005FB08F804F10109B8FBF9F28A4202D9AE
:100F0000A2EB010801E0A1EB02084246904202D99F
:100F1000104633703C7010B94FF0010C02E05B1CBE
:100F2000402BE3D300BFBCF1000F00D002E0641CF3
:100F3000042CD9D300BFBDE8F08300001CB57E4867
:100F4000007854283AD17C488078032836D17A48F2
:100F50004078522832D100217848CDE90001784804
:100F6000C37982790521002007F042FD06207549EA
:100F700008801CE07449734AB2F90020885C00EBD9
:100F8000D0714A106D490A396E4BB3F9003031F80F
:100F9000131011440AB26D496A4BB3F9003021F8BD
:100FA000132068480088401C00B2664908806448E5
:100FB000C0796449B1F900108842DBDC5E480078F2
:100FC00054283AD15C488078032836D15A48407872
:100FD0004C2832D100215E48CDE9000158484379C0
:100FE000027905217F2007F003FD0620554908807E
:100FF0001CE05549534AB2F90020885C00EBD071DF
:101000004A1053490A394F4BB3F9003031F81310E5
:10101000891A0AB24D494B4BB3F9003021F813201D
:1010200048480088401C00B246490880444840793E
:101030004449B1F900108842DBDC3F48007854286D
:101040003AD13D488078072836D13B4840784C2833
:1010500032D100213E48CDE900013E4803790A46DD
:1010600005217F2007F0C4FC0620364908801CE0DB
:101070003549344AB2F90020885C00EBD0714A103F
:1010800033490A392F4BB3F9003031F81310891A5C
:101090000AB22E492B4BB3F9003021F8132029480E
:1010A0000088401C00B2274908802A480079254959
:1010B000B1F900108842DBDC1F48007854283AD18F
:1010C0001D488078072836D11B484078522832D1F5
:1010D00000211A48CDE900011F4803797F2205212C
:1010E000002007F085FC0620164908801CE0164900
:1010F000144AB2F90020885C00EBD0714A100F4905
:101100000A39104BB3F9003031F8131011440AB208
:101110000E490C4BB3F9003021F813200948008820
:10112000401C00B2074908800548C0790549B1F95B
:1011300000108842DBDC1CBD30180020EE120020BD
:101140001811002028010020E8000020B81100201C
:101150000A150020581700206417002010B5C4E0BD
:101160000521674805F0B2FF664A0021102009F00A
:1011700095FE654A0121102009F090FE634A022184
:10118000102009F08BFE624A0321102009F086FE30
:10119000604A0421102009F081FE5F4A05211020D9
:1011A00009F07CFE5D4A0621102009F077FE1F2021
:1011B0005B4908805B4840784C2805D15AA2002141
:1011C000782009F06BFE04E058A20021782009F095
:1011D00065FE5448C2890121782009F079FE514802
:1011E00040784C281ED1524842880221782009F0CC
:1011F0006FFE4F4882880321782009F069FE4C4831
:10120000C2880421782009F063FE4948028905213B
:10121000782009F05DFE464842890621782009F0D1
:1012200057FE1DE04248C2890221782009F050FE95
:101230003F48028A0321782009F04AFE3C48428A4E
:101240000421782009F044FE3948828A052178205B
:1012500009F03EFE3648C28A0621782009F038FEA1
:1012600034480078012840D10020324908702448D1
:1012700090F90000062833D2DFE800F0030A121AC2
:10128000222A002278212748401C01F00BFD27E08C
:1012900001231A46782123480E3006F0F5F91FE0A5
:1012A0000123022278211F48223006F0EDF917E0D1
:1012B0000123032278211B48283006F0E5F90FE0CE
:1012C0001D4B0422782117482C3006F06FF907E0F7
:1012D0000123052278211348203006F0D5F900BFFC
:1012E00000BF4FF6E07009F0F2FA144800780128C8
:1012F0007FF436AF002011490870012010BD0000B6
:10130000E001002060F3000867F300086DF30008B7
:1013100078F3000885F3000890F300089AF30008BA
:1013200058040020301800204C000000520000003B
:101330007C010020100000200AD7233C0F00002071
:1013400010B516480088012826D114488068401C32
:1013500012498860084680688988B0FBF1F201FB79
:10136000120010B9722009F02BF90C4880680B4963
:101370008988B0FBF1F201FB120068B90748806868
:1013800006498988B0FBF1F104484088B1EB400F71
:1013900002D100200149088010BD0000680600202D
:1013A00070B504460D460A48008880B901200849F6
:1013B0000880084685804480408808B9012048801C
:1013C0000120034988600021722009F0D5F870BD22
:1013D0006806002000BFFEE700200DE0002108E0C5
:1013E000074A02EBC012525C064B03EBC0135A547F
:1013F000491C8029F4DB401C3C28EFDB70470000CF
:10140000B84C0020B86A002070B5AEE000F07CF95E
:1014100002F05AFE3C2280215A4809F070FA05F089
:1014200061F906F035FC06F0B1FC07F0C3FC06F0EC
:10143000F9FD00F037FA0023534854490268544834
:101440000CF041FF53490860B422514251480088D2
:1014500000B20BF0CFFA4F4908604F498868FFF798
:101460007CFA06B240F24E22C82130460BF0C2FA96
:101470004849096800FB01F4484948694849FFF7B1
:101480003FF80646FFF769FA054623462A464549CE
:10149000454805F04FFF40424449086044A20021FE
:1014A000AA2009F0FBFC3848008802B20121AA20DA
:1014B00009F04AFC40A20221AA2009F0EFFC4148B1
:1014C000807B42B20321AA2009F09FFC3EA20421A6
:1014D000AA2009F0E3FC3F48B0F900200521AA202A
:1014E00009F032FC3CA20521002009F0D7FC294874
:1014F000008802B20521322009F026FC38A206211C
:10150000002009F0CBFC2948008802B206213220D5
:1015100009F01AFC2548006828B1012208210020A2
:1015200009F012FC04E000220821104609F00CFC2E
:101530002DA20621AA2009F0B1FC2E48008802B293
:101540000721AA2009F000FC2B48B0F90020072150
:10155000002009F0F9FB2948B0F9002007215020AC
:1015600009F0F2FB1E2008F0ABF9254800780128AD
:101570007FF44CAF4FF6E07009F0A9F90020204944
:10158000087070BD48250120D400002018020020FA
:10159000F81000208C0000209C060020901A0020EB
:1015A0000000C842280200200811002094000020FA
:1015B00043656E7465723A00546F706C696E653A7B
:1015C0000000000018110020536572766F416464BA
:1015D0003A000000080000205261646975733A0007
:1015E000445F503A000000005468726573686F6C85
:1015F00064313A00F40400200000002002000020C2
:101600000F00002010B560E00721344805F05EFDB2
:10161000334A0021102009F041FC324A01211020F8
:1016200009F03CFC304A0221102009F037FC2F4A17
:101630000321102009F032FC2D4A0421102009F06A
:101640002DFC2C4A0521102009F028FC2A4A0621ED
:10165000102009F023FC294A0721102009F01EFC64
:1016600003224FF619616E2009F0E8F8244800784B
:1016700001282AD10020224908704FF6E07009F0B5
:1016800026F9164890F90000082819D2DFE800F082
:1016900004070A0D0E111417FFF7B6FE10E0FFF74E
:1016A0009BFB0DE006F09AF80AE009E0FFF756FD13
:1016B00006E002F035FC03E000F0DAFD00E000BFD8
:1016C00000BF4FF6E07009F002F90E4800780128DB
:1016D0009AD100200B490870012010BDDF010020C5
:1016E0001BF300081FF3000829F300082FF300087C
:1016F00038F3000841F300084AF3000855F30008E6
:10170000100000200F00002010B5FFF765FE00203C
:1017100003F0DCFD10BD000010B57DE00221434860
:1017200005F0D4FC4FF4784041490880414A00213B
:10173000102009F0B3FB404A0121102009F0AEFB54
:101740003E4A0221102009F0A9FB1F2038490880D9
:101750003B48C07B542805D13AA20021802009F0E3
:101760009DFB04E038A20021802009F097FB34485B
:10177000807B032805D135A20121802009F08EFB52
:101780001BE02F48807B012805D132A20121802057
:1017900009F084FB11E02A48807B022805D130A2A1
:1017A0000121802009F07AFB07E02548807B20B9E1
:1017B0002EA20121802009F071FB2148007D5428D0
:1017C00005D120A20221802009F068FB04E01EA2BE
:1017D0000221802009F062FB26480078012818D1F8
:1017E000002024490870114890F9000010B1022827
:1017F0000ED106E00022802111480F3006F0AEFC29
:1018000006E0022280210E48143006F0A7FC00BF3B
:1018100000BF0A2008F054F81748007801287FF428
:101820007DAF002014490870012010BDE6000020A3
:1018300058040020C2F20008CEF20008DCF20008D2
:10184000B01000205400000046000000416C6C6C99
:101850006F6F700053706565644C6F6F70000000AF
:101860004469726563744C6F6F7000004E4F4C6F2B
:101870006F700000100000200F0000204620084973
:10188000087302204873032088734620C873002021
:1018900008614620087596204875012070470000B1
:1018A000B01000202DE9F047BCB000240F204649BD
:1018B000088027E045484449B1F90010465C06EB32
:1018C000D6714810FFF714F8074641493E4AB2F96D
:1018D000002031F91210A1F14000FFF709F880460D
:1018E0003946FEF73FFE05463A49FEF709FE364AFD
:1018F000B2F900204DF8220033480088401C00B2A5
:10190000314908803048B0F900002828D2DB002097
:101910000F90109011900F202B4908800EE02A4A5A
:10192000B2F900205DF822102046FEF791FD044632
:1019300025480088401C00B2234908802248B0F99D
:1019400000002828EBDB24492046FEF70BFE064664
:101950004FF08041FEF7D4FD0546FEF7FEFF1F491C
:101960000860084600681E490860084600681D496E
:10197000086008460068FEF7BBFF80461A49FEF77C
:10198000BFFD064616480068FEF7B2FF82461749BB
:10199000FEF7B6FD804611480068FEF7A9FF8246B3
:1019A0001349FEF7ADFD81464146FEF751FD07465E
:1019B0003146FEF74DFD0546FEF7CFFF0D490860A5
:1019C00001203CB0BDE8F08728010020E80000209D
:1019D000B81100200000C84200002041D8000020BB
:1019E000DC000020E0000020CDCCCC3DCDCC4C3E36
:1019F0003333333FD40000201CB5C6480078542848
:101A00007DD1C448407804287ED1C248007F4C284C
:101A100039D100F091F9BF480079052833DB002166
:101A2000BD48CDE90001BB480379C27805217F207C
:101A300006F0DEFF0620B94908801DE0B849B74A24
:101A4000B2F9002031F9122001F50771B34BB3F957
:101A5000003031F91310501800EBD07149100AB260
:101A6000B049AE4BB3F9003021F81320AB480088E1
:101A7000401C00B2A9490880A6480079A749B1F9DD
:101A800000108842DADCA348007F52283CD100F0E5
:101A9000E7F9A0488079052836DB0021A0480A3004
:101AA000CDE900019B48837942790521002006F0A9
:101AB0009FFF0620994908801DE09949974AB2F98D
:101AC000002031F9122001F50771944BB3F9003071
:101AD00031F91310501800EBD07149100AB2914936
:101AE0008E4BB3F9003021F813208C480088401C3D
:101AF00000B28A49088087488079884900E003E07D
:101B0000B1F900108842D8DC82480078542874D19A
:101B100080484078062870D17E48007F4C2833D119
:101B200000217D48CDE900017F4803790A22052183
:101B30007F2006F05DFF0620784908801DE0784987
:101B4000764AB2F9002031F9122001F50771734B82
:101B5000B3F9003031F91310501800EBD07149106F
:101B60000AB270496D4BB3F9003021F813206B486D
:101B70000088401C00B2694908806C484079674978
:101B8000B1F900108842DADC6248007F522834D173
:101B9000002163480A30CDE90001654803796B22D2
:101BA0000521002006F024FF06205C4908801DE086
:101BB0005B495A4AB2F9002031F9122001F5077148
:101BC000564BB3F9003031F91310501800EBD071B7
:101BD00049100AB25349514BB3F9003021F8132090
:101BE0004E480088401C00B24C4908804F48C079DC
:101BF0004A49B1F900108842DADC46480078542896
:101C00007ED14448407809287AD14248007F4C2848
:101C10003CD105204149088031E03F480A383F491E
:101C2000B1F9001030F8110042493C4AB2F90020E5
:101C3000895C401A01B23A48384AB2F9002020F8CB
:101C400012100146354AB2F9002031F9122000F590
:101C50000771324BB3F9003031F91310501800EB13
:101C6000D07149100AB22F492C4BB3F9003021F83A
:101C700013202A480088401C00B2284908802B48BD
:101C8000807B2649B1F900108842C6DC2148007FDC
:101C900052283ED12548C07A2049088032E02048A9
:101CA0001E49B1F9001030F8110022491B4AB2F95F
:101CB0000020895C084401B217480A38174AB2F973
:101CC000002020F812101649144AB2F9002031F908
:101CD00012200146114BB3F9003031F9131050189E
:101CE00000EBD07149100AB20E490C4BB3F9003029
:101CF00021F8132009480088401C00B2074900E081
:101D000007E008800948807B0449B1F90010884247
:101D1000C5DC1CBD601800200A1500202801002029
:101D2000E4120020B81100205817002018110020DC
:101D300064170020E80000200021444801710020C1
:101D40004249C8704248407A801C072803DD404859
:101D5000407A801C00E007203E49088069E07D2031
:101D60003D49088032E03B48B0F90000C0F13B003B
:101D70003A4901EBC0103849B1F90010405CFF2826
:101D80001ED13448B0F90000C0F13B00334901EBEB
:101D9000C0113148B0F90000401E085CFF280FD187
:101DA0002C48B0F90000C0F13B002C4901EBC011F8
:101DB0002948B0F90000801E085CFF2800D10AE025
:101DC00025480088401E00B2234908802248B0F907
:101DD00000000028C7DC00BF1BE01E48B0F900006F
:101DE000C0F13B001D4901EBC0101B49B1F90010C7
:101DF000405C40B9174801781448017116480078D2
:101E00001249C8700AE014480088401E00B2124906
:101E100008801148B0F900001E28DEDC00BF0B4826
:101E2000007900B10AE00B480088401C00B2094963
:101E300008800848B0F900003B2890DB00BF034849
:101E4000007908B9002070470120FCE760180020E5
:101E5000181100202801002026010020482501201B
:101E60000021444881710020424948714248C07AAB
:101E7000801C072803DD4048C07A801C00E0072052
:101E80003E49088069E002203D49088032E03B4835
:101E9000B0F90000C0F13B003A4901EBC0103849ED
:101EA000B1F90010405CFF281ED13448B0F90000A1
:101EB000C0F13B00334901EBC0113148B0F90000DB
:101EC000401C085CFF280FD12C48B0F90000C0F17D
:101ED0003B002C4901EBC0112948B0F90000801CDF
:101EE000085CFF2800D10AE025480088401C00B2A9
:101EF000234908802248B0F900007F28C7DB00BFD3
:101F00001BE01E48B0F90000C0F13B001D4901EB89
:101F1000C0101B49B1F90010405C40B91748017866
:101F20001448817116480078124948710AE0144833
:101F30000088401C00B2124908801148B0F9000026
:101F40007F28DEDB00BF0B48807900B10AE00B4838
:101F50000088401C00B2094908800848B0F9000018
:101F60003B2890DB00BF0348807908B90020704708
:101F70000120FCE760180020181100202801002033
:101F8000260100204825012038B5044604EBC40092
:101F9000A74911F8200000904FF6E07008F097FC78
:101FA00037E10821A34805F091F84FF47840A249A1
:101FB0000880A04890F90000072828DC9F4A0021EB
:101FC000102008F06BFF9E4A0121102008F066FFE8
:101FD0009C4A0221102008F061FF9B4A0321102037
:101FE00008F05CFF994A0421102008F057FF984A36
:101FF0000521102008F052FF964A0621102008F013
:102000004DFF954A0721102008F048FF04E0934A4D
:102010000021102008F042FF1F20874908808548D2
:1020200090F9000007285CDC9DF800004C2805D1E1
:102030008BA20021782008F031FF04E089A2002162
:10204000782008F02BFF04EBC400794901EB8000F5
:10205000808882B20121782008F03AFF04EBC400A6
:10206000734901EB8000008982B20221782008F0D8
:102070002FFF04EBC4006E4901EB8000808982B21F
:102080000321782008F024FF04EBC400684901EB29
:102090008000008A82B20421782008F019FF04EB46
:1020A000C400634901EB8000808A82B20521782058
:1020B00008F00EFF04EBC4005D4901EB8000008BCB
:1020C00082B20621782008F003FF04EBC4005849CF
:1020D00001EB8000808B82B20721782008F0F8FEA7
:1020E0000AE004EBC400524901EB8000008C82B28C
:1020F0000021782008F0ECFE5B48007801286ED1C2
:102100000020594908704B4890F90000092874D202
:10211000DFE800F0050B1724313E4B586600002223
:102120007821684600F0BEFD67E004EBC401404A38
:1021300002EB8101081D01231A46782105F0FCFA03
:102140005BE004EBC4013A4A02EB810101F10800B3
:1021500001230222782105F0EFFA4EE004EBC401DE
:10216000334A02EB810101F10C00012303227821A3
:1021700005F0E2FA41E004EBC4012D4A02EB8101D3
:1021800001F1100001230422782105F0D5FA34E092
:1021900004EBC401264A02EB810101F11400012382
:1021A0000522782105F0C8FA27E004EBC401204A93
:1021B00002EB810101F1180001230622782105F0CC
:1021C000BBFA1AE004EBC401194A02EB810101F1E8
:1021D0001C0001230722782105F0AEFA0DE018E07B
:1021E00004EBC401124A02EB810101F1200001233A
:1021F0000022782105F0A0FA00BF00BF4FF6E07082
:1022000008F065FB9DF8000004EBC401084A42F8A1
:1022100021001648007801287FF4C3AE4FF6E07025
:1022200008F055FB002011490870012038BD00005E
:1022300094010020E301002058040020F0F300087E
:10224000F4F30008FDF3000808F4000811F4000896
:102250001CF4000825F400082FF4000837F40008E7
:102260004C00000052000000100000200F00002071
:1022700010B58BE007214A4804F028FF4FF478405E
:1022800048490880484A0021102008F007FE474AC4
:102290000121102008F002FE454A0221102008F01A
:1022A000FDFD444A0321102008F0F8FD424A0421B4
:1022B000102008F0F3FD414A0521102008F0EEFD42
:1022C0003F4A0621102008F0E9FD3E4A0721102070
:1022D00008F0E4FD1F20334908803B48C2890021F3
:1022E000782008F0F5FD384842890121782008F06F
:1022F000EFFD354882890221782008F0E9FD324857
:10230000028C0321782008F0E3FD30480078012892
:102310003CD100202D490870214890F90000082880
:102320002FD2DFE800F0040C141C24282C2D0123EC
:102330000022782124480E3005F0A6F921E001237F
:102340001A46782120480A3005F09EF919E0012349
:10235000022278211C480C3005F096F911E0012387
:10236000022278211848203005F08EF909E000207B
:10237000FFF70AFE05E00120FFF706FE01E000E09E
:1023800000BF00BF4FF6E07008F0A1FA10480078D7
:1023900001287FF46FAF00200D490870012010BDA7
:1023A000E40100205804002040F400084DF4000827
:1023B00059F4000865F4000872F400087BF4000882
:1023C00084F400088DF4000860180020100000203C
:1023D0000F00002018B503460020009000210022C5
:1023E0002648274C2478035525480078401C244C67
:1023F000207020460078032801D1002020700021A1
:102400000AE01E48405C442800D107E0022901D1BF
:10241000002018BD481CC1B20329F2DB00BF002216
:102420000AE01648405C0DF80200481CC1B20329BE
:1024300000D10021501CC2B2032AF2DB9DF800003B
:1024400044280AD19DF80100012806D19DF8020018
:102450004C2802D101200B4C20749DF80000442828
:102460000AD19DF80100022806D19DF802004C28EF
:1024700002D10120034C60740120CAE7280000202B
:102480002E0000209C10002010B500204849088034
:1024900053E04849464AB2F9002051F82200464923
:1024A000FEF710FB1BD245484149B1F9001030F945
:1024B00011203F48B0F90000401E404931F910009A
:1024C00082420CDB01F1F0003949B1F90010405CA7
:1024D000542804D13A480079401C394908713949D7
:1024E000334AB2F9002051F822003349FEF7EAFAE4
:1024F0001DD23048F0302E49B1F9001030F91120CA
:102500002B48B0F90000401E2A49F03131F9100083
:1025100082420CDC01F1F0002549B1F90010405C69
:10252000542804D126484079401C25494871204848
:102530000088401C00B21E4908802348807B1C494B
:10254000B1F900108842A4DC1D4800790A2803DB99
:1025500054201B49C87002E046201949C870184829
:1025600040790A2803DB54201549887002E0462090
:102570001349887012488078542803D01048C078D6
:1025800054280BD154200E4908700846407854282E
:1025900007D164210120FEF703FF02E0462008492D
:1025A00008700748C078542800D000BF012010BD33
:1025B00028010020981300209A99D93F6C1200201E
:1025C00046010020B4150020181100200146002209
:1025D0004FF0E0231A61CA005A6100229A61052275
:1025E0001A6100BF4FF0E022106900F001021AB139
:1025F00000F48032002AF5D04FF0E022126922F078
:1026000001024FF0E0231A6100229A61704710B571
:10261000022000F0CDF8012802D1022000F086F857
:1026200010BD10B5202000F0C3F8012802D12020F1
:1026300000F07CF810BD10B54FF4007000F0B8F851
:10264000012802D1400200F071F810BD10B54FF41E
:10265000005000F0ADF801280BD1400300F066F8FF
:1026600009480078032802D109F096FC00E000BF79
:1026700000BF4FF4005000F0B3F818B10021034838
:1026800000F062F810BD0000800500204400024008
:1026900010B54FF4003000F08BF8012802D140044F
:1026A00000F044F810BD10B54FF4001000F080F8B1
:1026B000012802D1400500F039F810BD10B54FF0E7
:1026C000007000F075F8012802D1400600F02EF8E5
:1026D00010BD10B5022000F06BF8012802D10220D5
:1026E00000F024F810BD10B54FF4007000F060F851
:1026F000012802D1400200F019F810BD10B50448BD
:1027000000F056F8012802D1014800F00FF810BD82
:102710000020001010B5044800F04AF8012802D14A
:10272000014800F003F810BD00000210B0F1805F16
:1027300002D90349086070470249486000BFFAE7C0
:102740000404024000000240026822F001020A4331
:1027500002607047016821F0010101600021016001
:1027600041608160C1601049096888420ED3C1B2DE
:1027700008390522B1FBF2F20F2191400A4A121FDB
:1027800012681143084A121F11600BE0C1B20839E8
:102790000522B1FBF2F20F219140044A5268114325
:1027A000024A5160704700000804024000000240E5
:1027B0000146B1F1805F07D907480068084008B1B9
:1027C000012070470020FCE704480068084008B179
:1027D0000120F6E70020F4E7000402400000024078
:1027E0000146B1F1805F07D907480068084008B189
:1027F000012070470020FCE704480068084008B149
:102800000120F6E70020F4E7000402400000024047
:102810001AB103680B43036002E003688B43036053
:10282000704710B50A7A8B7D1A430B7C1A434B7C98
:102830001A434B8A1A438B8A1A430B8B1A434B8BCE
:102840001A43036847F6F074A3431A430260026810
:1028500022F400428B8B1A430260CA6842600A6805
:1028600082604A68C26010BDF0B589B007460C4668
:1028700015461E460121480504F0F2FF3846FFF7D1
:1028800069FF01A800F032F80194029510208DF83C
:102890000C00049600208DF8140080208DF815009F
:1028A0000020ADF81600ADF818008DF81A004FF4AE
:1028B0008050ADF81C000020ADF81E00ADF82000DF
:1028C00001A93846FFF7ADFF012202213846FFF784
:1028D0009FFF01220221044806F058FA01213846E0
:1028E000FFF732FF09B0F0BD004800400021016051
:1028F00041600172C16001744174418281828175BD
:1029000001834183818370472DE9F04F89B0002115
:102910000C460D460E460F4688468946069107919D
:10292000049105910291039107F0F8FC07F030FD46
:102930008848B0F90000884908608648B0F902006C
:10294000864908608348B0F90400854908608148D9
:10295000B0F90600834908607E48B0F90800824952
:1029600008607C48B0F90A00804908604FF0000A0E
:1029700014E0794850F82A00041945EBE0757748CF
:1029800050F82A00861947EBE077754850F82A007E
:1029900010EB080849EBE0790AF1010ABAF1050FDA
:1029A000E7DB4FF0000A1FE06E4850F82A20DDE90F
:1029B0000601101841EBE273CDE906036A4850F8AE
:1029C0002A20DDE90401101841EBE273CDE904038C
:1029D000664850F82A20DDE90201101841EBE27345
:1029E000CDE902030AF1010ABAF1140FDCDB05227A
:1029F000002320462946FDF792FCCDE90001FDF7B2
:102A000085FF83464FF08D41FDF7ACFD58490860C6
:102A10000522002330463946FDF781FCCDE900014F
:102A2000FDF774FF83464FF08D41FDF79BFD504944
:102A300048600522002340464946FDF770FCCDE979
:102A40000001FDF763FF83464FF08D41FDF78AFDDE
:102A50004749886014220023DDE90601FDF75FFC89
:102A6000CDE90001FDF752FF83464249FDF77AFDAB
:102A70003F49C86014220023DDE90401FDF74FFC43
:102A8000CDE90001FDF742FF83463A49FDF76AFDB3
:102A90003749086114220023DDE90201FDF73FFCFC
:102AA000CDE90001FDF732FF83463249FDF75AFDBB
:102AB0002F4948614FF0000A1FE0CAF10300264980
:102AC00051F82000CAF10401234A42F82100CAF15A
:102AD0000300224951F82000CAF104011F4A42F8BC
:102AE0002100CAF103001E4951F82000CAF1040177
:102AF0001B4A42F821000AF1010ABAF1040FDCDB9B
:102B00004FF0000A1FE0CAF11200164951F82000E8
:102B1000CAF11301134A42F82100CAF11200124906
:102B200051F82000CAF113010F4A42F82100CAF1FE
:102B300012000E4951F82000CAF113010B4A42F865
:102B400021000AF1010ABAF1130FDCDB09B0BDE87C
:102B5000F08F0000781A0020CC1A0020E01A002024
:102B6000F41A0020081B0020581B0020A81B00207E
:102B7000901A00206F12834100BFFEE710B541F2AA
:102B8000142114200BF002FF41F2162125200BF036
:102B9000FDFE042300221146152007F047FC042304
:102BA00000221146172007F041FC002344F268225E
:102BB0004FF49051332009F0BBFD002344F268220A
:102BC00042F20121332009F0B3FD002344F26822D0
:102BD00043F20221332009F0ABFD002344F26822C6
:102BE00044F20321332009F0A3FD00202949088085
:102BF000294908802948B0F90030322244F21B11DB
:102C0000022009F095FD002025490880002240F2AD
:102C10000441104606F0BAFA002240F2077110464D
:102C200006F0B4FA002240F20551104606F0AEFA62
:102C3000002240F20661104606F0A8FA082301229D
:102C40000021252007F0F2FB08230122002111209A
:102C500007F0ECFB0823012200215B2007F0E6FBD4
:102C6000082301220021242007F0E0FB0823012291
:102C70000021122007F0DAFB0823012200215C204A
:102C800007F0D4FB082301220021102007F0CEFB1F
:102C900010BD000000000020020000200400002001
:102CA000080000202DE9F04105460E4617462C7815
:102CB0004FF61F001B49088024E01B4800780128BC
:102CC00007D10020184908704C2C01D1522400E093
:102CD0004C2416480078012807D1002013490870B9
:102CE0004C2C01D1522400E04C244C2C05D110A2D4
:102CF0003946304608F0D2F804E00EA23946304694
:102D000008F0CCF80C4800780128D6D100200A49F8
:102D100008704FF47840034908802C700120BDE80A
:102D2000F0810000580400200D0000200E0000205B
:102D30004C000000520000001000002010B586B0CA
:102D40000020059003900490019002903E4988680D
:102D50004FF07E51FDF77CFB0446FDF717FEC0B235
:102D60008DF81400384908684FF07E51FDF770FB6C
:102D70000446FDF70BFEC0B28DF815003249C86855
:102D80004FF07E51FDF764FB0446FDF7FFFDC0B236
:102D90008DF816002C4948684FF07E51FDF758FB1E
:102DA0000446FDF7F3FDC0B28DF817009DF817003B
:102DB0009DF81410401A03909DF816009DF8151008
:102DC000401A04909DF814009DF8171008440190D3
:102DD0009DF815009DF81610084402909DF8170004
:102DE0009DF81410401A42F210714843019990FB6B
:102DF000F1F42046FDF77CFD144908606421039836
:102E00004843019990FBF1F000B211490880642118
:102E100004984843029990FBF1F000B20D490880F4
:102E2000642251420A48B0F9000009F0E3FD084964
:102E30000880642251420748B0F9000009F0DAFD29
:102E40000449088006B010BD681A00205004002014
:102E5000440400204604002070B50F480088FDF7A8
:102E600050FD054629460D4803F0C2FD0446FDF716
:102E70008DFD0B4908800B480088FDF742FD054693
:102E80002946094803F0B4FD0446FDF77FFD0749D4
:102E90000880012070BD00003E0400204800002092
:102EA0004A04002040040020600000204C04002060
:102EB0002DE9F04700240025642600BF1CE04849A6
:102EC00051F82400FDF714FD464941F82400464915
:102ED00031F81400FDF715FD0746424951F824006A
:102EE0004249FDF70DFB80463946FDF73BFB3D4966
:102EF00041F82400601CC4B2042CE0DB002414E080
:102F00002846FDF7FEFC0746364850F824103846A0
:102F1000FDF7CEFD07D2334951F82400FDF736FD09
:102F2000C5B233480470601CC4B2042CE8DB002432
:102F300014E03046FDF7E5FC07462A4850F8241017
:102F40003846FDF7BFFD07D2264951F82400FDF7AA
:102F50001DFDC6B227480470601CC4B2042CE8DB17
:102F60001F4880681E494968884202DD1C48806805
:102F700001E01B484068322803DC54201E490870D9
:102F800002E046201C490870164A51689068FDF717
:102F90005FFA0746FDF7FAFC18490880114AD16824
:102FA0001068FDF755FA0746FDF7F0FC1449088054
:102FB0000C4A11689068FDF74BFA81460948C168D0
:102FC0004846FDF745FA8046064841684046FDF709
:102FD0003FFA0746FDF7DAFC0A490880BDE8F087AA
:102FE000F0190020681A0020340400200000C842B4
:102FF0003C0400203D040020480400203E04002042
:10300000400400204204002010B5A0E003F002FCC0
:10301000FFF74EFFFFF792FE4FF4784051490880CA
:1030200051A20021084607F039FF1F204D490880B2
:103030005448008982B20121062007F049FF514817
:10304000008882B20121342007F042FF4D48808978
:1030500082B20121622007F03BFF4A48808882B299
:103060000121902007F034FF4FF478403D4908805B
:1030700045A20221002007F011FF1F2039490880D6
:1030800048498868FDF782FCC4B222460321062025
:1030900007F068FF43490868FDF778FCC4B2224690
:1030A0000321342007F05EFF3E49C868FDF76EFC3F
:1030B000C4B222460321622007F054FF3949486810
:1030C000FDF764FCC4B222460321902007F04AFFBA
:1030D0004FF478402349088033A20421002007F0F0
:1030E000DDFE1F201F4908803748008802B20521F5
:1030F000002007F029FE3548008802B20521502043
:1031000007F022FE3248008802B20521A02007F015
:103110001BFE4FF47840134908802EA206210020A0
:1031200007F0BCFE1F200F4908803048B0F900208E
:103130000721102007F008FE2D48B0F900200721D4
:10314000582007F001FE4FF47840064908802948CE
:10315000007801287FF45AAF00202649087001202A
:1031600010BD000058040020202020204C312020D9
:1031700020204C32202020204C332020204C342092
:1031800000000000F0190020202020204C312020D9
:1031900020204C322020204C33202020204C342072
:1031A00020000000681A002020204C53554D5F314C
:1031B0003420204C53554D5F3233204C53554D5FD6
:1031C00031323334000000003E040020400400206F
:1031D0004204002043454E5445525F3134202020A4
:1031E00043454E5445525F323300000044040020F2
:1031F000460400200F00002010B5012000F082F8E6
:1032000010BD10B54FF4806000F082F818B14FF493
:10321000806000F077F84FF4006000F079F818B1A2
:103220004FF4006000F06EF84FF4805000F070F83A
:1032300018B14FF4805000F065F84FF4005000F0E2
:1032400067F818B14FF4005000F05CF84FF480407C
:1032500000F05EF818B14FF4804000F053F84FF4DE
:10326000004000F055F818B14FF4004000F04AF863
:1032700010BD10B5022000F045F810BD10B50420B7
:1032800000F040F810BD10B5082000F03BF810BD6C
:1032900010B5102000F036F810BD000010B5202049
:1032A00000F036F810B1202000F02CF8402000F09B
:1032B0002FF810B1402000F025F8802000F028F809
:1032C00010B1802000F01EF84FF4807000F020F85C
:1032D00060B10B480078032802D108F019FF00E024
:1032E00000BF00BF4FF4807000F00CF84FF4007086
:1032F00000F00EF818B14FF4007000F003F810BDA4
:103300008005002001490860704700001404014056
:10331000014606480068084030B104481438006887
:10332000084008B1012070470020FCE71404014068
:103330008179002953D03349096802689143314AA1
:103340001160111D0968026891432E4A121D116017
:10335000017931B9111F096802681143294A1160C6
:1033600007E02849091D096802681143254A121D12
:10337000116024490831096802689143214A0832E2
:103380001160111D0968026891431E4A0C321160D8
:10339000417910290ED1111F096802681143194A99
:1033A00008321160111D096802681143154A0C3278
:1033B000116025E04179082908D1124908310968CE
:1033C000026811430F4A0832116019E00D490C31AF
:1033D0000968026811430B4A0C32116010E0017950
:1033E00031B90849096802689143064A116007E04B
:1033F0000449091D096802689143024A121D1160BF
:10340000704700000004014010B50D4A8B1052F8BF
:1034100023208B071C0F0F23A3409A43084B8C10CB
:1034200043F824201A468B1052F823208B071B0FD9
:1034300000FA03F31A43024B8C1043F8242010BD0A
:10344000080001400021016001710C21417100213F
:10345000817170472DE9F05F25200BF055FBC249C3
:10346000086014200BF050FBC049086014200BF0DA
:1034700041FB25200BF03EFB152006F0C5FF01287F
:1034800004D1BA4800684042B8490860172006F0E5
:10349000BBFF20B9B44800684042B3490860B24954
:1034A0000868FDF725FA8046FDF7A3FA0646B04AFC
:1034B000B04BFDF73CF90446FDF7DEFAAA49486037
:1034C0000A4691685068FDF715F8A749C860C868B2
:1034D000FDF776FC0446A849FDF7F4FA1ED2A2498E
:1034E0008868FDF786FA06460022A44BFDF71FF90F
:1034F000804689469C494868FDF77BFA06460022CB
:103500009E4BFDF714F9824642464B46FDF768F89C
:103510000446FDF7B1FA944948601DE09249886875
:10352000FDF767FA0646964A964BFDF700F9044602
:103530000D468D494868FDF75CFA0646924A934B62
:10354000FDF7F5F8804622462B46FDF749F88246FE
:10355000FDF792FA8449486083498D4A48688D494D
:1035600009F053FA804908610846406888607F493D
:103570000868FDF7BDF98246FDF73BFA8046002258
:10358000854BFDF7D4F806460022844BFDF7CFF8B3
:103590000446FDF771FA754948600A46916850681B
:1035A000FCF7A8FF7149C860C868FDF709FC04462C
:1035B0007149FDF787FA1ED26C498868FDF719FA40
:1035C000064600226D4BFDF7B2F804460D466749EA
:1035D0004868FDF70EFA06460022684BFDF7A7F88B
:1035E000804622462B46FCF7FBFF8246FDF744FA55
:1035F0005E4948601DE05D498868FDF7FAF90646B6
:103600005F4A604BFDF793F8804689465749486802
:10361000FDF7EFF906465C4A5C4BFDF788F88246F9
:1036200042464B46FCF7DCFF0446FDF725FA4F49BE
:1036300048604E49564A4868564909F0E6F94B49F0
:10364000086108464068886008460068464909687D
:10365000441804EBD4714810FDF74AF90746504965
:10366000FCF780FF06464F49FCF77CFF05464E48B5
:1036700001692846FCF7ECFE4B4908613A480069AD
:1036800008603A4800694860484948694849FDF778
:103690000FFA19D245494869FDF7ABF98246454A08
:1036A000454BFDF744F8804689462F490869FDF7E8
:1036B000A0F9064642464B46FDF733F80446FDF7AF
:1036C000DBF9394988602CE0384948693B49FDF706
:1036D000F9F919D235494869FDF78BF98246354A1F
:1036E000354BFDF724F88046894620490869FDF7E7
:1036F00080F9064642464B46FCF772FF0446FDF74A
:10370000BBF9294988600CE0184A1169164A10690A
:10371000FCF79EFE04464FF08041FCF723FF224950
:1037200088602149C868FDF764F90646144A154BBC
:10373000FCF7FDFF804689461B498868FDF759F96B
:103740000646114A114BFCF7F2FF044642464B462F
:10375000FCF746FF8246FDF78FF91349886008465B
:103760008068C860BDE8F09F7406002088060020CD
:103770009487855AD3BCC33F0000A0420000E03FBD
:103780009A9999999999B93FCDCCCCCCCCCCEC3FB6
:103790000000FA430000FAC30000F03F0000D03FF1
:1037A0000000E1430000C8429C060020901A00205F
:1037B000000048C2C3F5285C8FC2C53F00004842E4
:1037C0007CB561E04FF478403449088034A2002190
:1037D000084607F063FB35A20121002007F05EFBDD
:1037E00034A20221002007F059FB35A2032100205A
:1037F00007F054FB34A20421002007F04FFB1F20E8
:10380000264908803348008802B20021782007F05A
:103810009BFA30494868FDF7ECF804460B46022055
:1038200005212246CDE900100121782007F02CFA6D
:103830002948008802B20221782007F085FA26493B
:103840004868FDF7D6F804460B46022005212246BB
:10385000CDE900100321782007F016FA1F49886887
:10386000FDF7C7F804460B46022005212246CDE9A4
:1038700000100421782007F007FA4FF47840074938
:1038800008800A2006F01CF815480078012899D114
:1038900000201349087001207CBD0000580400205E
:1038A0004C772E656E636F6465723A004C772E6EAE
:1038B0006F773A0052772E656E636F6465723A00D7
:1038C00052772E6E6F773A00576865656C2E6E6F73
:1038D000773A000074060020880600209C0600202D
:1038E0000F00002010B5FF234C4A02217F2006F074
:1038F000CDFC4A4800784A4908750846007D54289E
:1039000001D0002010BD454800794549C87343489F
:10391000007A88734148007B424908703F48008A1A
:1039200000B248803D494869FCF7EBFF3D494860DB
:1039300048683D49FCF716FE3A4948603748008B15
:1039400000B208813549C869FCF7DBFF3549C8601A
:10395000C8683549FCF706FE3249C8602F4890F820
:103960002000324908702D4890F8240030494870F2
:103970002A48008DC8812948808D48842749086BD2
:10398000FCF7BFFF2A49C862C86A2A49FCF7EAFD6A
:103990002749C8622148808E08842048008F088506
:1039A0001E48808F2449A1F882001C48B0F84000CE
:1039B000A1F894001948B0F84400A1F896001748FF
:1039C000806C1E4908601548C06C48601348006D43
:1039D00088601248406DC8601048816D17480161C9
:1039E0000E48C16D154841610C48006E134988614D
:1039F0000A48416E1148C1610848816E0F48016252
:103A00000648C06E0D4948620448016F0B48816248
:103A10000248416F0948C162012073E7700A002023
:103A2000B01000209C10002000007A44A004002068
:103A3000301800200000C842981700204C010020D8
:103A40001CB579480079022874D1774890F886002F
:103A5000522835D100F0F4F800217448CDE9000176
:103A60007148837942790521002004F0C1FF0520C7
:103A70006F4908801CE06F496D4AB2F90020885CEC
:103A800000EBD0714A1069490A39694BB3F900302B
:103A900031F8131011440AB26749654BB3F900308D
:103AA00021F8132062480088401C00B26049088059
:103AB0005D4880795E49B1F900108842DBDC39E06D
:103AC000594890F886004C2834D100F0B9F800210C
:103AD0005A48CDE9000154488379427905217F2075
:103AE00004F086FF0520524908801CE05149504AE5
:103AF000B2F90020885C00EBD0714A104F490A39B6
:103B00004B4BB3F9003031F81310891A0AB24A4905
:103B1000474BB3F9003021F8132045480088401C7A
:103B200000B243490880404880794149B1F900100A
:103B30008842DBDC3C480079042874D13A4890F88C
:103B40008600522835D100F07BF800213748CDE9B6
:103B500000013548837942790521002004F048FFAF
:103B60000520334908801CE03249314AB2F900206F
:103B7000885C00EBD0714A102C490A392C4BB3F900
:103B8000003031F8131011440AB22B49284BB3F915
:103B9000003021F8132026480088401C00B2244938
:103BA0000880214880792249B1F900108842DBDC85
:103BB00039E01D4890F886004C2834D100F040F8D8
:103BC00000211E48CDE9000117488379427905217B
:103BD0007F2004F00DFF0520154908801CE01549E1
:103BE000134AB2F90020885C00EBD0714A101349E7
:103BF0000A390F4BB3F9003031F81310891A0AB2A1
:103C00000D490B4BB3F9003021F813200848008808
:103C1000401C00B206490880034880790449B1F984
:103C200000108842DBDC1CBD98170020EE1200203B
:103C300028010020E8000020B81100200A1500200B
:103C400010B540245D4800780A30372803DA5B4815
:103C500000780A3000E0372059490880A2E059482E
:103C6000048029E057480088012807D15548017889
:103C70005548534AB2F90020815422E05048B0F927
:103C80000000C0F13B00514901EBC0104D49B1F9B2
:103C90000010405CFF2809D14A480078401EC1B29C
:103CA0004948474AB2F9002081540AE04548008853
:103CB000401E00B2434908804248B0F90000002885
:103CC000D0DC00BF3F4804802BE03E4800887E28BF
:103CD00008D13C4801783C483C30394AB2F90020D0
:103CE000815423E03648B0F90000C0F13B00374969
:103CF00001EBC0103349B1F90010405CFF280AD134
:103D000030480078401CC1B22F483C302C4AB2F9F0
:103D1000002081540AE02B480088401C00B2294949
:103D200008802848B0F900007F28CEDB00BF264974
:103D3000234AB2F900208A5C3C31214BB3F90030B0
:103D4000C95C501800EBD071C1F347041E483C30E9
:103D50001B49B1F90010415C3C38194AB2F9002006
:103D6000805C081A022817DC1548007816490839C3
:103D700088701348017814480838817145223B2126
:103D8000204608F037FEC4B20F480838447154206A
:103D90000D490839C8710BE009480088401E00B27F
:103DA000074908800648B0F900000528BFF657AF5C
:103DB00000BF05480838807810BD0000701700204B
:103DC0002801002026010020A017002048250120FE
:103DD00038B5044604EB4400474911F82000009030
:103DE0004FF6E07006F073FD79E00221434803F0DE
:103DF0006DF94FF4784042490880424A0021102072
:103E000007F04CF8404A0121102007F047F83F4ADC
:103E10000221102007F042F81F20394908809DF840
:103E200000004C2805D13AA20021782007F036F88E
:103E300004E038A20021782007F030F804EB4400B9
:103E40002D4901EB8000808882B20121782007F0A3
:103E50003FF804EB4400284901EB8000008982B25E
:103E60000221782007F034F82B480078012836D159
:103E7000002029490870214890F9000020B101284C
:103E800008D002281FD111E0002278216846FEF7F1
:103E900009FF18E004EB4401174A02EB8101081DF9
:103EA00001231A46782103F047FC0CE004EB44019F
:103EB000114A02EB810101F108000123022278215D
:103EC00003F03AFC00BF00BF4FF6E07006F0FFFCC5
:103ED0009DF8000004EB4401074A42F821000F4816
:103EE0000078012881D14FF6E07006F0F0FC002048
:103EF0000A490870012038BD4C010020E101002072
:103F000058040020A3F30008A7F30008B0F300084A
:103F10004C00000052000000100000200F000020A4
:103F200010B57CE00621434803F0D0F84FF4784008
:103F300041490880414A0021102006F0AFFF404A65
:103F40000121102006F0AAFF3E4A0221102006F0AF
:103F5000A5FF3D4A0321102006F0A0FF3B4A0421A3
:103F6000102006F09BFF3A4A0521102006F096FF2C
:103F7000384A0621102006F091FF1F202E490880A4
:103F80003548B0F882200021782006F0A1FF3248A1
:103F9000B0F894200121782006F09AFF2E48B0F85E
:103FA00096200221782006F093FF2C480078012803
:103FB00035D10020294908701E4890F900000628D4
:103FC00028D2DFE800F0030B131B1F23012300227C
:103FD00078212148823003F057FB1BE001230022A7
:103FE00078211D48943003F04FFB13E00123002299
:103FF00078211948963003F047FB0BE00020FFF7CB
:10400000E7FE07E00120FFF7E3FE03E00220FFF7F1
:10401000DFFE00BF00BF4FF6E07006F058FC10480E
:10402000007801287FF47EAF00200D490870012040
:1040300010BD0000E201002058040020BAF300087F
:10404000C1F30008CAF30008D4F30008DBF300084A
:10405000E2F30008E9F300089817002010000020A0
:104060000F0000200F481049486710488867104823
:10407000C1F884000F48C1F88800002088660E4807
:10408000C1F890000D48C1F894000D4888630020E5
:10409000C8630C4808644FF082404864002088647C
:1040A000C86470470000204358190020000020C356
:1040B00000002041000020C100001644000016C48A
:1040C0009A9989409A99193E70B50020FE49088056
:1040D000FE490880FE4802F02FFFFE4802F02CFF48
:1040E000FD4802F029FF0020FC4948800021FB48E0
:1040F00041710020F94908710021F848C171002080
:10410000F64988710021F54841720020F349087290
:104110000021F248C1720020F0498872887346205D
:10412000C873002008747F208874002008757F20E1
:104130008875002088767F200876002088830873A1
:10414000487381F821007F20C877002081F825007E
:104150007F2081F823004620E1494870C8704871EB
:10416000C8710020C8720872487288724620DD4902
:104170004870C8704871C8710020C87208724872CF
:1041800088724620D8494870C8704871C8710020AC
:10419000C872087248728872D449088008817F20EA
:1041A0008880888146208870887188728873002092
:1041B000CF4988710872C8714872CE490871487138
:1041C0004620CD49C8710020C870462081F8800083
:1041D0000020CA4908807BE239220321C748B0F990
:1041E000000002F00DFB00287ED0C448B0F90000AA
:1041F000C0F13B00C24901EBC010807AD8B9BF487A
:10420000B0F90000C0F13A0001EBC010807A90B91B
:10421000BA48B0F90000C0F1390001EBC010807A53
:1042200048B9AF484078462805D1B4480078AC4931
:10423000087054204870B148B0F90000C0F13B004C
:10424000AF4901EBC010807AFF281DD1AB48B0F90F
:104250000000C0F13A0001EBC010807AFF2813D1B2
:10426000A648B0F90000C0F1390001EBC010807A17
:10427000FF2809D19A48C078462805D19F48007880
:10428000974988705420C8709C48B0F90000C0F16C
:104290003B009B4901EBC01090F87500E8B99748C6
:1042A000B0F90000C0F13A0001EBC01090F87500C1
:1042B00098B99248B0F90000C0F1390001EBC01084
:1042C00090F8750048B987484078462805D18B4852
:1042D000007884490870542048708848B0F900007C
:1042E000C0F13B00864900E07AE001EBC01090F895
:1042F0007500FF281FD18148B0F90000C0F13A00D5
:1043000001EBC01090F87500FF2814D17B48B0F97C
:104310000000C0F1390001EBC01090F87500FF28D3
:1043200009D17048C078462805D1744800786D4995
:1043300088705420C8707148B0F90000C0F13B008B
:104340006F4901EBC01090F84000E8B96B48B0F934
:104350000000C0F13A0001EBC01090F8400098B99D
:104360006648B0F90000C0F1390001EBC01090F8C8
:10437000400048B95C484078462805D15F4800783D
:1043800059490870542048705C48B0F90000C0F1E9
:104390003B005B4901EBC01090F84000FF281FD1A3
:1043A0005648B0F90000C0F13A0001EBC01090F897
:1043B0004000FF2814D15148B0F90000C0F1390085
:1043C00001EBC01090F84000FF2809D14648C078A2
:1043D000462805D149480078434988705420C87060
:1043E000392217214548B0F9000002F009FA0028E7
:1043F00068D04248B0F90000C0F13B00404901EBF1
:10440000C010807A90B93D48B0F90000C0F13A0080
:1044100001EBC010807A48B931484079462805D16F
:10442000364800782E490871542048713348B0F955
:104430000000C0F13B00324901EBC010807AFF2838
:1044400013D12E48B0F90000C0F13A0001EBC010C2
:10445000807AFF2809D12248C079462805D127480B
:1044600000781F4988715420C8712448B0F90000B1
:10447000C0F13B00224901EBC01090F8750098B9DB
:104480001E48B0F90000C0F13A0001EBC01090F8EE
:10449000750048B913484079462805D11748007877
:1044A00010490871542048711448B0F90000C0F157
:1044B0003B00134901EBC01090F87500FF2835D17F
:1044C0000E481FE072E0000042010020440100207D
:1044D0002A010020320100203A010020181100209A
:1044E0005817002064170020701700207C17002048
:1044F0008C1700204601002098170020280100207A
:1045000048250120B0F90000C0F13A0001EBC010CD
:1045100090F87500FF2809D1FE48C079462805D1DA
:10452000FD480078FB4988715420C871FA48B0F9F9
:104530000000C0F13B00F94901EBC01090F84000C9
:1045400098B9F548B0F90000C0F13A0001EBC0108D
:1045500090F8400048B9F2484079462805D1EE4825
:104560000078EF49087154204871EB48B0F9000019
:10457000C0F13B00E94901EBC01090F84000FF2872
:1045800014D1E548B0F90000C0F13A0001EBC010C9
:1045900090F84000FF2809D1E148C079462805D1AC
:1045A000DD480078DE4988715420C871DA48B0F9D6
:1045B00000001E2840DAD848B0F90000C0F13B00E6
:1045C000D64901EBC010807A28B9D648007A401C41
:1045D000D449087204E0D348407A401CD14948725B
:1045E000CD48B0F90000C0F13B00CC4901EBC01050
:1045F00090F8750028B9C748007A401CC549087270
:1046000004E0C448407A401CC2494872C248B0F92C
:104610000000C0F13B00C14901EBC01090F8400020
:1046200028B9BF48007A401CBD49087204E0BC4864
:10463000407A401CBA494872B748B0F900001E28B9
:1046400040DBB548B0F90000C0F13B00B34901EBD5
:10465000C010807A28B9B348807A401CB14988726A
:1046600004E0B048C07A401CAE49C872AA48B0F90C
:104670000000C0F13B00A94901EBC01090F87500A3
:1046800028B9A448807A401CA249887204E0A14855
:10469000C07A401C9F49C8729F48B0F90000C0F121
:1046A0003B009E4901EBC01090F8400028B99C489F
:1046B000807A401C9A49887204E09948C07A401C6C
:1046C0009749C87294480088401C00B292490880FB
:1046D0009148B0F900003C28FFF67EAD00209249D9
:1046E00008802FE091489049B1F90010405C48B92A
:1046F0008F488078462805D18B4800888C490880EF
:104700005420887089488849B1F90010405CFF281E
:1047100009D18748807A462805D183480088844992
:1047200008815420887282488078542804D18048B7
:10473000807A542800D10AE07B480088401C00B2EF
:10474000794908807848B0F900007F28CADB00BFAB
:104750007F20754908802FE074487349B1F9001033
:10476000405C48B972488079462805D16E48008877
:104770006F498880542088716C486B49B1F90010EA
:10478000405CFF2809D16A48807B462805D16648ED
:104790000088674988815420887365488079542847
:1047A00004D16348807B542800D10AE05E48008829
:1047B000401E00B25C4908805B48B0F90000002848
:1047C000CADC00BF052054490880002056490880F3
:1047D00021E05148B0F90000C0F13B004F4901EB26
:1047E000C0105149B1F90010405CFF280DD151486B
:1047F00000884D490988084400B24E4908804E4857
:104800000088401C00B24C49088047480088401C82
:1048100000B2454908804448B0F900007F28D8DB41
:104820004448B0F900004449B1F9001090FBF1F0A0
:1048300000B2424908800846B0F90000002801DCB7
:10484000402008803D4800883C4948800520324986
:104850000880B3E33948408833490880A0E02E48F7
:10486000B0F90000C0F13B002C4901EBC0102E490B
:10487000B1F90010405CE8BB2B480088D0B32A484F
:104880000088401C01B22E48234AB2F9002020F8CB
:1048900012105421F030204AB2F9002081542748E8
:1048A000407940B91C480178244841711E4800787D
:1048B000401C224908711848B0F9000005284ADD5B
:1048C0001548B0F90000401E1D49F031085C54281D
:1048D00041D11148B0F90000801E085C54283AD13B
:1048E0000D49B1F90010C91E154A32F91100FBF744
:1048F000FFFF00E030E005461149074AB2F9002009
:1049000031F91200FBF7F4FF06462946FBF7F2FDEA
:10491000044617E0641700202801002048250120E4
:10492000701700205817002026010020C8260120FB
:104930007C170020420100204401002018110020B3
:104940006C120020FE49FBF70DFEFE49FE4AB2F94B
:10495000002041F8220029E0FC480088D0B900215D
:10496000FB48F94AB2F9002020F812104621F03035
:10497000F54AB2F900208154F648407A50B9F5481A
:10498000407938B1F0480178F2484172EF48007838
:10499000F0490872ED480088401E00B2EB490880DB
:1049A000EA48B0F900000028BFF659AF00BFE94857
:1049B0004088E64908808CE0E348B0F90000C0F187
:1049C0003B00E54901EBC010E049B1F90010405C43
:1049D000F0BBDE4800887F2855D0DC480088401EA8
:1049E00001B2D848F030D84AB2F9002020F81210AD
:1049F0005421F030D44AB2F900208154D548C0790E
:104A000040B9D1480178D348C171D0480078401EE0
:104A1000D0498871CC48B0F90000052832DDCA4879
:104A2000B0F90000401ECD49085C54282AD1C64880
:104A3000B0F90000801E085C542823D1F039C24A26
:104A4000B2F9002031F91200FBF752FF054600E0F1
:104A500019E0BD49B1F90010C91EBA4AF03232F965
:104A60001100FBF745FF06462946FBF743FD0446C8
:104A7000B349FBF777FDB9493C31B34AB2F900209D
:104A800041F822002BE0B14800887F281BD17F210C
:104A9000AC48F030AC4AB2F9002020F812104621A0
:104AA000F030A94AB2F900208154AA48C07A50B91E
:104AB000A848C07938B1A4480178A648C172A34873
:104AC0000078A4498872A1480088401C00B29F4920
:104AD00008809E48B0F900007F287FF76DAF00BFC7
:104AE0009B49994AB2F9002031F9122001F507716A
:104AF000954BB3F9003031F91310501800EBD07119
:104B0000491009B2934A51808E48F0308E49B1F96C
:104B1000001010F811108E488B4AB2F9002010F8DE
:104B20001200081A41B28E48874AB2F90020815417
:104B30008549B1F90010405C8A49834AB2F90020E6
:104B4000895C401A41B286483C307F4AB2F9002065
:104B50008154844B7C4CB4F900401B5D5A1D814B41
:104B6000794CB4F900401B5D591F7D4B764CB4F96C
:104B70000040185701F044FE38B15421784878308D
:104B8000714AB2F90020815406E046217448783019
:104B90006D4AB2F900208154714878306A49B1F900
:104BA0000010405C54281DD16D4878306649B1F939
:104BB0000010491C405C542814D16948783062497F
:104BC000B1F90010891C405C54280BD16148007B6E
:104BD00040B95D48B0F900000A2803DB5A48007864
:104BE0005C4908735E4878305749B1F90010405C61
:104BF00046281DD15A4878305349B1F90010491C54
:104C0000405C462814D1564878304F49B1F900101D
:104C1000891C405C46280BD14E48407B40B94A482D
:104C2000B0F900000A2803DB474800784949487377
:104C30004B484549B1F9001040564A4991F83B109C
:104C4000884209DA4348C07B462805D13E480078AF
:104C5000404988735420C8733B4800883B2806D1DC
:104C60003C48C07B462802D13B203A4988733848EB
:104C70003549B1F9001030F911003649097C8842F4
:104C800013DB33483049B1F9001030F91100012825
:104C90000BDD2F482C49B1F9001010F811002D49F7
:104CA0000874294801782B48417429482649B1F9EC
:104CB000001030F911002749897C884213DC244810
:104CC0002149B1F9001030F9110001280BDD20480D
:104CD0001D49B1F9001010F811001E4988741A48D6
:104CE00001781C48C1741748F0301749B1F9001019
:104CF00030F911001749097D884215DB1148F03061
:104D00001149B1F9001030F9110080280CDA0D4872
:104D1000F0300D49B1F9001010F811000D49087577
:104D2000094801780B4841750648F0300649B1F949
:104D3000001030F911000749897D884228DC13E012
:104D40000000404098130020280100202601002088
:104D50006C12002018110020482501207815002031
:104D6000A4160020E8000020E848E949B1F9001045
:104D700030F9110080280BDAE448E549B1F9001058
:104D800010F81100E3498875E1480178E148C175E0
:104D9000E148DF49B1F9001030F91100DD49897EA1
:104DA00088420BDBDC48DA49B1F9001010F8110039
:104DB000D8498876D6480178D648C176D648D449AD
:104DC000B1F9001030F91100D249097E88420BDC9C
:104DD000D148CF49B1F9001010F81100CD4908763B
:104DE000CB480178CB484176C948B0F90000142877
:104DF0007EDDCA48C649B1F9001030F91100C54935
:104E000091F82110884215DBC448C149B1F900105E
:104E100030F9110001280DDDC048BD49B1F900107D
:104E200010F81100BB4981F82100B9480178B94850
:104E300080F82210B948B649B1F9001030F91100D4
:104E4000B449C97F884214DCB448B149B1F90010B3
:104E500030F9110001280CDDB048AD49B1F900105E
:104E600010F81100AB49C877A9480178A94880F823
:104E70002010A648A649B1F9001030F91100A54943
:104E800091F82510884215DBA048A149B1F900101E
:104E900030F9110080280DDA9C489D49B1F90010C5
:104EA00010F811009B4981F825009948017899482C
:104EB00080F8261095489649B1F9001030F9110094
:104EC000944991F82310884217DC90489049B1F931
:104ED000001030F9110080280FDA8C488C49B1F9A4
:104EE000001010F811008B4981F82300884800E079
:104EF00003E00178874880F824108548B0F9000065
:104F0000052807DC40208449814AB2F9002021F8B5
:104F1000120016E081497E4AB2F9002031F91220D0
:104F20007A497B4BB3F9003031F91310501800EB7C
:104F3000D071491009B2784A754BB3F9003022F8A4
:104F400013107549724AB2F9002031F91210C1F1FB
:104F50004000FBF731FFC1B270483C386C4AB2F9EF
:104F6000002081543C306A49B1F9001030F811102A
:104F70007830674AB2F9002020F81210634864497B
:104F8000B1F9001030F811107830614AB2F9002000
:104F900020F8121060485E49B1F9001030F8111085
:104FA00078305B4AB2F9002020F8121001F0BAFE06
:104FB00057480088401C00B2554908805448B0F951
:104FC00000003C28FFF646AC5248807F542808D1A8
:104FD00003F010F9FDF758FA514948685149FBF7B9
:104FE00071FD51480078542801D1FEF729FD4F4842
:104FF0000078542801D1FBF7A1FF4D4800785428D0
:1050000001D1FCF7F9FC05204149088074E04248D1
:1050100078303F49B1F9001030F911007F2808DDE0
:105020007F213D4878303A4AB2F9002020F812102A
:1050300012E0394878303649B1F9001030F91100E2
:10504000002808DA002134487830314AB2F90020CB
:1050500020F8121000E000BF304878302C49B1F938
:10506000001030F911007F2808DD7F212B487830AF
:10507000274AB2F9002020F8121012E027487830B1
:105080002349B1F9001030F91100002808DA002195
:10509000224878301E4AB2F9002020F8121000E0B1
:1050A00000BF1A4878301A49B1F9001030F91100E0
:1050B0007F2808DD7F2115487830154AB2F9002095
:1050C00020F8121012E0114878301149B1F900109F
:1050D00030F91100002808DA00210C4878300C4A19
:1050E000B2F9002020F8121000E000BF0848008844
:1050F000401C00B2064908800648807B0449B1F98B
:105100000010884283DC012070BD0000881400205C
:105110002801002018110020401100206C120020EE
:10512000B01000209A99993E98170020301800205E
:10513000601800202DE9F04FCFB080464FF00009F5
:10514000CA46CB4600204E904D904C90459000248E
:1051500004E0002005A90855601C04B2FF2CF8DD0E
:10516000002412E000270CE008EBC410C05D05A984
:10517000085C401C08EBC411C95D05AA5054781C9A
:1051800007B2802FF0DB601C04B23C2CEADB002568
:1051900001E0681C05B2FF2D03DC05A8405D002876
:1051A000F7D0FF2601E0701E06B2AE4203DD05A86F
:1051B000405D0028F7D0AE4203D130464FB0BDE885
:1051C000F08F681CB04201D12846F7E72C4604E076
:1051D00005A8005D8144601C04B2B442F8DD0020E3
:1051E0004E902C4607E005A8015D4E9801FB040097
:1051F0004E90601C04B2B442F5DD334847902C4613
:105200005EE005A8005D8244A9EB0A004C90484688
:10521000FBF777FB04905046FBF773FB0390049970
:10522000FBF7A0F94B904846FBF76BFB04904C98BA
:10523000FBF75EFB03900499FBF794F94A9005A8ED
:10524000005D00FB04BB4E98A0EB0B004D90504658
:10525000FBF757FB04905846FBF753FB0390049968
:10526000FBF780F949904C98FBF742FB04904D986E
:10527000FBF73EFB03900499FBF774F948904899BB
:105280004998FBF737F9049048994998FBF732F9A8
:1052900002904A994B98FBF733F901900299FBF77A
:1052A0002FF903900499FBF72BF9469047994698FC
:1052B000FBF708FC02D2469847904594601C04B264
:1052C000B4429EDB459879E7000080BF2DE9F041AC
:1052D00006460024002500272EB92A48FFF72AFF9A
:1052E000294908802DE0012E1CD100240CE0002566
:1052F00006E0244800EBC410405D0744681C85B2FA
:10530000802DF6DB601C84B23C2CF0DB3C20B7FB2C
:10531000F0F0C0F3CF101C49088008460088143014
:1053200008800EE0022E04D1184800881649088033
:1053300007E0032E05D11649124806F0F5FABDE83C
:10534000F08100241AE0002514E00E4800EBC410A0
:10535000405D0D490988884205DDFF200C4901EBBD
:10536000C411485504E00020094901EBC411485517
:10537000681C85B2802DE8DB601C84B23C2CE2DB2B
:1053800000BFDCE7B86A0020F4040020F604002027
:105390004825012010B5002409F0EEFA05F00EFBB7
:1053A00053A20021084605F079FD55A20021C8202E
:1053B00005F074FD53A20121002005F06FFD06F0F9
:1053C00037FE4FA20121C82005F068FD51A202213D
:1053D000002005F063FD00F0BFFF01F0A7FFFCF720
:1053E0004DFA47A20221C82005F058FD4DA2032125
:1053F000002005F053FDFDF7C1FB41A20321C820A9
:1054000005F04CFD4BA20421002005F047FD05F0FE
:1054100055F900BF00F07AF90028FBD038A204212A
:10542000C82005F03BFD47A20521002005F036FD10
:10543000FEF758FA484802789C21212006F0DCFF4C
:105440002FA20521C82005F029FD4FF6E07005F0D8
:105450003EFAC82004F034FA002002F031FA0A249F
:1054600015E03E480078012811D1FCF74DF93C22A7
:1054700080213B4805F043FAFCF714FAFEF724FEBE
:1054800002F006FC002035490870601E04B2002CB2
:10549000E7D15420334988770020334908604FF61C
:1054A000E07005F014FA4FF47840304908804FF668
:1054B000E0702F4908802FA20021084605F0EEFC7D
:1054C0000121722005F058F84FF4967004F0F8F9B5
:1054D0000021722005F050F8002005F0F8F90323B0
:1054E00002224FF47A71462009F028FB012010BDFA
:1054F0006970733131345F696E6974203A0000005D
:105500004F4B00006D7439763033785F696E697483
:105510003A000000706172616D5F696E6974203AD3
:1055200000000000646576696365735F696E697485
:10553000203A000069636D32303630325F696E693F
:1055400074203A007265616420666C617368207033
:105550006172616D733A0000A0040020A204002073
:105560004825012018110020D400002058040020F4
:105570005A040020507265737320427574746F6E04
:1055800020533120546F2053746172742043617230
:105590002100000010B504464948007830B90120C8
:1055A000474908704FF6E07005F091F9062145482B
:1055B00001F08CFD444A0021102005F06FFC434AA5
:1055C0000121102005F06AFC414A0221102005F05B
:1055D00065FC404A0321102005F060FC3E4A04218E
:1055E000102005F05BFC3D4A0521102005F056FC1B
:1055F0003B4A0621102005F051FC03224FF61961A9
:10560000762005F01BF937480078012803D036488A
:10561000007801282DD100203249087032490870E5
:105620004FF6E07005F053F9264890F9000007287E
:105630001AD2DFE800F004070A0D10131600FBF77A
:10564000E1FF11E001F082FC0EE0FDF7DDFC0BE074
:1056500000F01CF908E001F0B9FD05E0FEF7B0F834
:1056600002E0FCF759F800BF00BF4FF6E07005F00C
:105670002EF91E48007801280DD100201B49087022
:105680004FF4784005F023F919A20521084605F0EA
:1056900005FC012010BD1548007802280DD100201E
:1056A000124908704FF4FC6005F011F914A20521AD
:1056B000084605F0F3FB0220ECE70020EAE70000D3
:1056C000DE010020DD010020E9F20008F0F2000810
:1056D000F8F20008FCF2000805F300080BF30008DC
:1056E00013F30008100000200A0000200F00002023
:1056F00072756E6E696E675F6D6F646500000000A5
:105700007368656C6C5F6D6F646500002DE9F04136
:105710008CB0642430216846FAF74BFE4620574986
:1057200008700020486088604620087300200861E7
:105730004861462008760020C8610862002545E0DF
:1057400004F0ECFD04F024FE012009F001F94C48BE
:10575000B0F90000C217DDE9003118185141CDE958
:1057600000014749B1F90210CA17DDE902305918A2
:105770005041CDE902104249B1F90410CA17DDE9E0
:10578000043059185041CDE904103D49B1F90610D3
:10579000CA17DDE9063059185041CDE906103848DE
:1057A000B0F90810CA17DDE90837591847EB0200AD
:1057B000CDE908103248B0F90A00C217DDE90A3114
:1057C00018185141CDE90A01681CC5B2A542B7DBE2
:1057D00022460023DDE900713846FAF7A0FD00B249
:1057E0002849088022460023DDE902713846FAF78D
:1057F00096FD00B22349488022460023DDE904716A
:105800003846FAF78CFD00B21E49888022460023F4
:10581000DDE906713846FAF782FD00B21949C88001
:1058200022460023DDE908713846FAF778FD01B217
:105830001448018122460023DDE90A713846FAF74F
:105840006EFD01B20F48418101200F49087000250B
:105850000DE0002607E004F061FD04F099FDFDF77E
:1058600053F8701CC6B2032EF5DB681CC5B2642D5C
:10587000EFDB01200CB0BDE8F0810000A81A002089
:10588000781A0020841A0020680400202DE9FC5FAB
:10589000EF24A049A0480068FAF72CFE9F49086051
:1058A0009C499D480068FAF7D3FD9D4908604FF672
:1058B000FF7005F00CF8012522E19A4800780128D4
:1058C00004D100209749087085F0010596480078BA
:1058D000012811D100209449087094490868FBF709
:1058E00088F806460022924BFAF71BFF8046FBF72A
:1058F000C3F88E49086040E08E480078012811D135
:1059000000208C49087089490868FBF772F88046C6
:105910000022874BFAF764FE0646FBF7ADF8834991
:1059200008602AE084480078012811D100208249CB
:10593000087079480068FBF75CF806467F4A804BA0
:10594000FAF74EFE8046FBF797F87349086014E0BB
:105950007C480078012810D100207A4908706E48F0
:105960000068FBF746F88046744A754BFAF7D9FE93
:105970000646FBF781F868490860002D9CD0EF2CA3
:105980000FDB00244FF6FF7004F0A1FF002606E0B5
:10599000B0B24FF47842432104F0F7FF761CF02EAA
:1059A000F6DB5E4801685E480068FAF7A3FD8246B0
:1059B00065495A480068FAF7A3FD83465146FAF74D
:1059C000D1FD07465548016855480068FAF792FD31
:1059D00082465D495D480068FAF792FD834651466C
:1059E000FAF7C0FD81463946FAF784FD0646FAF714
:1059F000B4FF80461FFA88F1A0B2002204F0C5FF70
:105A000052480068FAF7F5FF06460B4602200321CC
:105A10003246CDE900100521032005F035F9434950
:105A20000868FAF7E6FF06460B46022003213246D5
:105A3000CDE900100621032005F026F9364800685C
:105A4000FAF7D7FF06460B46022003213246CDE97E
:105A500000100721032005F017F93D48B0F90000B8
:105A6000FAF746FF8146FAF7C4FF06460B460220C6
:105A700005213246CDE900100021032005F004F98C
:105A800034480068FAF734FF8146FAF7B2FF064659
:105A90000B46022003213246CDE9001001210520EA
:105AA00005F0F2F82C480068FAF7A3FF06460B460B
:105AB000022005213246CDE900100146052005F0FF
:105AC000E3F826480068FAF713FF82462449FAF7FC
:105AD00049FD8146FAF78DFF06460B460220052157
